:020000040800F2
:10000000000400206D030008F7410008ED400008DF
:10001000F54100086B050008114E000800000000C3
:100020000000000000000000000000003D44000847
:10003000B109000800000000F94100083F44000831
:100040008B0300088B0300088B0300088B03000858
:100050008B0300088B0300088B0300088B03000848
:100060008B0300088B0300088B0300086D05000854
:100070008B0300088B0300088B0300088B03000828
:100080008B0300088B0300088B0300088B03000818
:100090008B0300088B0300088B0300088B03000808
:1000A0008B0300088B0300088B0300088B030008F8
:1000B0008B0300088B0300088B0300088B030008E8
:1000C0008B0300088B0300088B0300088B030008D8
:1000D0008B0300088B0300088B0300088B030008C8
:1000E0008B0300088B030008000000008B0300084E
:1000F0008B0300088B0300088B0300088B030008A8
:100100008B0300088B0300088B0300088B03000897
:100110008B0300088B0300088B0300088B03000887
:100120008B0300088B0300088B0300088B03000877
:100130008B0300088B0300088B0300088B03000867
:1001400000000000000000000000000000000000AF
:100150008B0300088B0300088B0300088B03000847
:100160008B0300088B0300088B0300088B03000837
:100170008B0300088B0300088B03000800000000BD
:100180008B0300088B0300088B0300088B03000817
:100190008B0300088B0300088B0300088B03000807
:1001A0008B0300088B0300088B030008000000008D
:1001B0008B0300088B0300088B0300088B030008E7
:1001C0008B0300088B030008000000000000000003
:1001D00000000000000000008B0300080000000089
:1001E000000000000000000000000000000000000F
:1001F00000000000000000008B0300088B030008D3
:100200008B0300088B030008000000008B0300082C
:100210008B0300088B0300088B0300088B03000886
:100220008B030008000000008B03000800000000A2
:100230008B0300088B030008000000008B030008FC
:100240008B0300088B0300088B0300088B03000856
:100250008B0300088B0300088B0300088B03000846
:100260008B0300088B0300088B0300088B03000836
:100270008B0300088B0300088B03000800000000BC
:100280008B0300088B0300088B0300088B03000816
:10029000000000008B0300088B0300080000000032
:1002A000000000008B0300088B0300088B0300088C
:1002B000054E00088B0300088B0300088B03000821
:1002C0008B0300088B0300088B03000800F002F882
:1002D00000F03CF80AA090E8000C82448344AAF1A4
:1002E0000107DA4501D100F031F8AFF2090EBAE8A2
:1002F0000F0013F0010F18BFFB1A43F0010318475A
:10030000A04C0000D04C0000103A24BF78C878C13F
:10031000FAD8520724BF30C830C144BF04680C600B
:10032000704700000023002400250026103A28BF53
:1003300078C1FBD8520728BF30C148BF0B60704757
:100340001FB504F007FE1FBD10B510BD00F0D3F8B7
:100350001146FFF7F5FF04F0BFFD00F0F1F803B41C
:10036000FFF7F2FF03BC00F0F9F800000A488047ED
:100370000A4880470A480047FEE7FEE7FEE7FEE737
:10038000FEE7FEE7FEE7FEE7FEE7FEE70548064973
:10039000064A074B704700008D0D0008D94400083D
:1003A000CD020008F001002400040020F003002426
:1003B0000000002053EA020C00F069802DE9F04BA8
:1003C0004FF00006002B1FBFB3FA83F503FA05F4C4
:1003D00024FA05F65E4012BF1643B2FA82F502FA1D
:1003E00005F4C5F120051EBF22FA05FC44EA0C0401
:1003F000203556EA044C4FEA144418BF641C4FF0F1
:1004000000084FF00009904271EB030C39D300292A
:1004100019BFB1FA81F701FA07F6B0FA80F700FACE
:1004200007F6C7F120071EBF20FA07FC46EA0C06B4
:100430002037B6FBF4FCA7EB0507103F07F01F0BB6
:10044000CBF120060CFA0BFB2CFA06F644BFB346A0
:100450000026202FA4BF5E464FF0000B5BEA060C7F
:1004600008BF4FF0010B19EB0B09ABFB027C48EB0B
:100470000608C01B06FB02CC0BFB03CC71EB0C0186
:10048000C1E70B46024641464846BDE8F08B13B52E
:100490004FF000004FF00001AFF30080BDE81C40BA
:1004A00070474FF0000200B5134694469646203937
:1004B00022BFA0E80C50A0E80C50B1F12001BFF41D
:1004C000F7AF090728BFA0E80C5048BF0CC05DF883
:1004D00004EB890028BF40F8042B08BF704748BFD1
:1004E00020F8022B11F0804F18BF00F8012B704745
:1004F000704770477047754600F02CF8AE4605000F
:100500006946534620F00700854618B020B5FFF72E
:100510003DFFBDE820404FF000064FF000074FF0D0
:1005200000084FF0000B21F00701AC46ACE8C00911
:10053000ACE8C009ACE8C009ACE8C0098D4670471A
:1005400010B50446AFF300802046BDE81040FFF729
:1005500006BF0000004870478C01002401491820A4
:10056000ABBEFEE7260002007047FEE7014800F040
:100570000DBF0000A8000024294A016891423AD02A
:10058000274A1832914236D0254A3032914232D031
:10059000234A483291422ED0214A603291422AD0D9
:1005A0001F4A7832914226D01D4A9032914222D081
:1005B0001B4AA83291421ED01A4A91421BD0194AB6
:1005C0001832914217D0174A3032914213D0154A4F
:1005D000483291420FD0134A603291420BD0114AF7
:1005E0007832914207D00F4A9032914203D00D4A9F
:1005F000A832914211D1CAB21823103AB2FBF3F2D9
:100600006FF30901032A02F00703074AD25CC265AF
:1006100000D9091D81650846704721F0FF01F9E7FF
:1006200010000240100402405E4F000830B5224A1C
:10063000012301689142CAB21BD01F4C1434A1425D
:1006400017D01D4C2834A14213D01B4C3C34A1427E
:100650000FD0194C5034A1420BD0174C6434A14236
:1006600007D0154C7834A14203D0134C8C34A142EE
:100670000CD11421114C083AB2FBF1F10F4A80322F
:1006800001F01F0504EB8101AB4010E00C4D182474
:10069000103A0D44B2FBF4F1A82D00D80831094AF4
:1006A00001F01F0402EB8101064AA3408032603052
:1006B00080E80E0030BD000008540258005802586F
:1006C000F0FBFDBF0008024010B50279531E072B56
:1006D0002DD8174C0168A1421BD0154C1434A142EF
:1006E00017D0134C2834A14213D0114C3C34A142F2
:1006F0000FD00F4C5034A1420BD00D4C6434A142AA
:1007000007D00B4C7834A14203D0094C8C34A14261
:1007100003D10849074C443102E00749064C4431F3
:1007200004EB8202C0E91B2101219940416710BD01
:1007300008540258FC580258FC08024010B583695E
:100740004FF0C074826A0146002053B1B3F5005FD8
:1007500015D072B1012A0CD0022A0AD0032A09D17D
:1007600004E01AB1012A06D0022A03D1C96AC901DC
:1007700000D5012010BDC96AA142FAD010BD002ADF
:10078000F7D0012AF2D0022AF3D0032AF3D010BD09
:100790002DE9F04F804E804FDFF8FC911836DFF8DE
:1007A000F8A148370468856D0AF1300ADFF8ECB12A
:1007B0004C45DFF8ECC1DFF8ECE16DD0B4426BD012
:1007C000544569D0BC4267D0DFF8D081A8F1180841
:1007D000444561D05C455FD064455DD074455BD0D5
:1007E000DFF8C481444557D0DFF8BC8108F1180810
:1007F000444551D0DFF8B08108F1300844454BD072
:10080000DFF8A48108F14808444545D0DFF8988115
:1008100008F1600844453FD0DFF88C8108F1780882
:10082000444539D0DFF8808108F19008444533D041
:10083000DFF8748108F1A80844452DD0DFF86C81F9
:10084000444529D0DFF8648108F11408444523D0D9
:10085000DFF8588108F1280844451DD0DFF84C81A5
:1008600008F13C08444517D0DFF8408108F15008F2
:10087000444511D0DFF8348108F1640844450BD0B9
:10088000DFF8288108F17808444505D0DFF81C819D
:1008900008F18C08444509D1D0E91948C4F804800E
:1008A000C46E1CB1D0E91C48C4F8048004684C45EF
:1008B0002ED0B4422CD054452AD0BC4228D0374E3A
:1008C000183EB44224D05C4522D0644520D0744503
:1008D0001ED0354EB4421BD0334E1836B44217D01A
:1008E000314E3036B44213D02F4E4836B4420FD07A
:1008F0002D4E6036B4420BD02B4E7836B44207D022
:10090000294E9036B44203D0274EA836B44215D1B2
:1009100090F85C603F2406F01F06B440AC600468A9
:10092000256825F4802525602EE09A600068C16066
:10093000BDE8F08F99600068C260F9E71B4EB442D1
:100940001BD01A4E1436B44217D0184E2836B44273
:1009500013D0164E3C36B4420FD0144E5036B4422B
:100960000BD0124E6436B44207D0104E7836B442E3
:1009700003D00E4E8C36B442DAD190F85C6001247C
:1009800006F01F06B4406C60046863608368402B07
:100990000368CFD1C9E70000100002408800024080
:1009A000A0000240B800024010040240085402585F
:1009B0007047000027492022274810B503F098F817
:1009C00026482749006888423AD02549183188428C
:1009D00036D023493031884232D0214948318842CB
:1009E0002ED01F49603188422AD01D497831884273
:1009F00026D01B499031884222D01949A83188421B
:100A00001ED0184988421BD016491831884217D089
:100A100014493031884213D01249483188420FD0EE
:100A20001049603188420BD00E497831884207D096
:100A30000C499031884203D00A49A831884203D139
:100A4000016821F0080102E0016821F00401016061
:100A500010BD00002001002414000024A800002480
:100A6000100002401004024070B5FFF7A3FFBC491C
:100A70000878C82808D18A7801F12000162A04D005
:100A8000142A7CD00B2A7BD063E1B1F80320C2F397
:100A90000A0202800B794A79DB0843EA421493097F
:100AA000C4F30A0242808C79CA7943EA8404530869
:100AB00044EA8222C2F30A0282800A7A43EAC2131B
:100AC0001409C3F30A02C2804B7A44EA0315DC0915
:100AD000C5F30A0303818D7ACB7A44EA45059C0865
:100AE00045EA4323C3F30A0343810B7B44EA83149F
:100AF0005B09C4F30A0484814C7B43EAC403C381C9
:100B0000CB89C3F30A030382CC7B0B7CE5089C09E9
:100B100045EA4313C3F30A0343824D7C8B7C44EACA
:100B200085055C0845EA8323C3F30A038382CB7CF3
:100B300044EAC3151C09C5F30A03C3820B7D44EACA
:100B40000315DC09C5F30A0303834D7D8B7D44EA5D
:100B500045059C0845EA4323C3F30A034383CB7D41
:100B600000EE102A44EA83145B09C4F30A04848368
:100B7000097E43EAC101C183DFED7A4A01E0C6E0A4
:100B8000E4E0B8EE400AF0EE642A9FED776AB0EE3A
:100B9000462A9FED765AF0EE451ADFED756AB0EE03
:100BA000661A9FED747AF0EE470A04F060F980ED62
:100BB000080A8188F0EE642A00EE101AB8EE400AA6
:100BC000DFED6D5AF0EE451AB0EE652ADFED6B7A77
:100BD000F0EE470AB0EE671A04F049F980ED090A11
:100BE0000188F0EE642A00EE101AB0EE462AF0EE0C
:100BF000451AB8EE400AB0EE671AF0EE470A04F064
:100C000036F980ED0A0A4188F0EE642A00EE101AE7
:100C1000B0EE462AF0EE451AB8EE400AB0EE661A7B
:100C2000F0EE470A04F023F980ED0B0A018AF0EE9A
:100C3000642A00EE101AB0EE652AF0EE451AB8EEFE
:100C4000400A9FED4F6AB0EE461ADFED4E6AF0EEB5
:100C5000660A04F00CF980ED0C0A418AF0EE642A71
:100C600000EE101AB0EE652AF0EE451AB8EE400A12
:100C7000B0EE461AF0EE660A04F0F9F880ED0D0ABF
:100C8000818A4FF47A72914201D9012400E0002454
:100C900080F8384044894FF478714FF4E0638C4217
:100CA00001D1012404E09C4201D1022400E000248F
:100CB00080F8394084898C4201D1012404E09C42AF
:100CC00001D1022400E0002480F83A40C48A944212
:100CD00001D9012200E0002280F83B2002898A42EB
:100CE00001D1012204E09A4201D1022200E0002257
:100CF00080F83C20C2898A4201D1012104E09A4255
:100D000001D1022100E0002180F83D1021E0CA78E5
:100D100080F83E200A7980F83F204A7980F8402008
:100D20008A7980F84120CA7980F842200A7A80F8CE
:100D300043204A7A80F844208A7A80F84520CA7A8B
:100D400080F84620097B80F8471002E0C978A0F8B7
:100D500048102021BDE870400148FFF7A2BB000009
:100D6000200100240000C8420000C8C200007844EE
:100D70000000E24400002E43000000000060E24456
:100D80000000E04400003F4372B6FEE70548054915
:100D90000839026842F00202026008688004FCD54B
:100DA000704700000C4802582DE9F84F044601F046
:100DB000B3FA00903CB194F83500022806D08021A7
:100DC00061650020E4E00120BDE8F88FC74DC74E03
:100DD000C649183520683036DFF81483DFF81493DD
:100DE0008842DFF814A3DFF814B32ED0A8422CD029
:100DF000B0422AD0404528D0484526D0504524D07E
:100E0000584522D0BD4A183290421ED0BC4A90426A
:100E10001BD0BB4A1832904217D0B94A30329042A8
:100E200013D0B74A483290420FD0B54A6032904250
:100E30000BD0B34A7832904207D0B14A90329042F8
:100E400003D0AF4AA832904209D1026822F01E02B4
:100E500002602068426922F08002426103E0026879
:100E600022F00E02026027688F4238464DD0A84219
:100E70004BD0B04249D0404547D0484545D0504579
:100E800043D0584541D09D4A183290423DD09C4AAB
:100E900090423AD09A4A1832904236D0984A30322C
:100EA000904232D0964A483290422ED0944A6032D4
:100EB00090422AD0924A7832904226D0904A90327C
:100EC000904222D08E4AA83290421ED08D4A904243
:100ED0001BD08C4A1432904217D08A4A2832904252
:100EE00013D0884A3C3290420FD0864A503290420A
:100EF0000BD0844A6432904207D0824A78329042C2
:100F000003D0804A8C32974204D1206E026822F4CA
:100F10008072026075492068884228D0A84226D095
:100F2000B04224D0404522D0484520D050451ED064
:100F300058451CD071491831884218D070498842F0
:100F400015D06F491831884211D06D49303188422F
:100F50000DD06B494831884209D0694960318842D7
:100F600005D067497831884201D0654990310168E0
:100F700021F0010101600EE001F0CEF90099401A64
:100F8000052808D9202262650321002084F8351045
:100F900084F8340017E73868C007EDD1534A0121BF
:100FA000206890422ED0A8422CD0B0422AD0404592
:100FB00028D0484526D0504524D0584522D04F4B04
:100FC000183398421ED04E4B98421BD04C4B1833CE
:100FD000984217D04A4B3033984213D0484B48338D
:100FE00098420FD0464B603398420BD0444B783335
:100FF000984207D0424B9033984203D0404BA833DD
:10100000984208D194F85C703F23A06D07F01F0749
:10101000BB40836007E094F85C30A06D03F01F03D1
:1010200001FA03F34360206890424DD0A8424BD0B0
:10103000B04249D0404547D0484545D0504543D0BF
:10104000584541D02D4A183290423DD02C4A90420A
:101050003AD02B4A1832904236D0294A3032904248
:1010600032D0274A483290422ED0254A60329042F0
:101070002AD0234A7832904226D0214A9032904298
:1010800022D01F4AA83290421ED01E4A90421BD046
:101090001C4A1432904217D01A4A2832904213D078
:1010A000184A3C3290420FD0164A503290420BD030
:1010B000144A6432904207D0124A7832904203D0E8
:1010C000104A8C3290420BD1D4E919024260E06E92
:1010D00030B1026822F480720260D4E91C024260DE
:1010E000002084F8351084F834006DE610000240CA
:1010F000580002407000024088000240A0000240F8
:1011000010040240085402582DE9F05F28B190F80D
:101110003510022904D0802141650120BDE8F09FEF
:10112000904C904B0168183C18338E4ADFF83C9283
:10113000A1428D4CDFF838E28E4FDFF83CB2DFF889
:101140003CA28F4D8F4E31D091422FD099422DD05D
:10115000A1422BD0494529D0714527D0B94225D08D
:10116000DFF810C20CF1180C61451FD0DFF808C27F
:10117000ACF1600C614519D0DFF8FCC1ACF1480C52
:10118000614513D0DFF8F0C1ACF1300C61450DD0F2
:10119000DFF8E4C1ACF1180C614507D0594505D022
:1011A000514503D0A94201D0B1422CD1DFF8B4C1DE
:1011B0004FF0040880F83580ACF1180C61451DD063
:1011C00091421BD0994219D0A14217D0494515D060
:1011D000714513D0B94211D06648183081420DD004
:1011E00065486038814209D063484838814205D05B
:1011F00061483038814201D05F481838086820F0D3
:1012000001000860ABE0D1F800C02CF00E08DFF858
:1012100054C1C1F80080ACF1180C0168614527D0B9
:10122000914225D0994223D0A14221D049451FD0D7
:1012300071451DD0B9421BD0DFF838C10CF1180C34
:10124000614515D0DFF830C1ACF1600C61450FD0BD
:10125000DFF824C1ACF1480C614509D0DFF818C1B2
:10126000ACF1300C614503D0DFF80CC1ACF1180CC7
:10127000D1F800C02CF0010CC1F800C0DFF8E48008
:101280004FF0010C0168A8F11808414546D0914281
:1012900044D0994242D0A14240D049453ED0714508
:1012A0003CD0B9423AD0334A1832914236D0324A11
:1012B000603A914232D0304A483A91422ED02E4A7A
:1012C000303A91422AD02C4A183A914226D05945B8
:1012D00024D0514522D0A94220D0B1421ED02A4A62
:1012E00091421BD0284A1432914217D0264A283204
:1012F000914213D0244A3C3291420FD0224A5032BC
:1013000091420BD0204A6432914207D01E4A783273
:10131000914203D01C4A8C32914218D1016E0A6866
:1013200022F480720A6090F85C20816D02F01F0246
:101330000CFA02F24A60D0E919124A60C16E31B16A
:101340000A6822F480720A60D0E91C124A60002206
:10135000016D80F835C080F8342001B18847002045
:10136000DCE6000028000240580002407000024005
:1013700088000240A000024070040240880402403D
:10138000A0040240B8040240085402582DE9FC5F52
:101390000446F74E0020DFF8D88300904FF4165231
:1013A000F44808F11808A56DDFF8C493DFF8C0A36E
:1013B000016809F1300920680AF1480AB1FBF2F12D
:1013C000B04201912F68D5F800C0DFF8ACB335D03A
:1013D0004146884232D0484530D050452ED05845FD
:1013E0002CD0E5491831884228D0E3493031884271
:1013F00024D0E1494831884220D0E04988421DD0BC
:10140000DE491831884219D0DC493031884215D084
:10141000DA494831884211D0DFF860E30EF1600EFE
:1014200070450BD0D54A7832904207D0D34B9033D9
:10143000984203D0D149A83188427DD194F85C20EC
:10144000082102F01F0201FA02F23A424AD0B042E9
:1014500032D0404530D048452ED050452CD058454C
:101460002AD0C54A1832904226D0C34A3032904220
:1014700022D0C14A483290421ED0C04A90421BD06E
:10148000BE4A1832904217D0BC4A3032904213D034
:10149000BA4A483290420FD0B84A603290420BD0DC
:1014A000B64A7832904207D0B44A9032904203D084
:1014B000B24AA832904203D1026802F0040202E06C
:1014C000026802F008026AB1026822F004020260B7
:1014D00094F85C0000F01F008140A960606D40F04E
:1014E0000100606594F85C00012100F01F0081405C
:1014F000394240D02068B04234D0404532D04845CF
:1015000030D050452ED058452CD09B4A18329042AE
:1015100028D0994A3032904224D0974A483290429B
:1015200020D0964A90421DD0944A1832904219D049
:10153000924A3032904200E0AFE113D08F4A4832F5
:1015400090420FD08D4A603290420BD08B4A783255
:10155000904207D0894A9032904203D0874AA832FD
:1015600090427DD1406910F0800F04D0A960606D79
:1015700040F00200606594F85C00042100F01F0058
:10158000814039423ED02068B04232D0404530D010
:1015900048452ED050452CD058452AD0764A18328E
:1015A000904226D0744A3032904222D0724A483259
:1015B00090421ED0714A90421BD0704A183290421D
:1015C00017D06E4A3032904213D06C4A4832904263
:1015D0000FD06A4A603290420BD0684A783290420B
:1015E00007D0664A9032904203D0644AA8329042B3
:1015F0004ED1006810F0020F04D0A960606D40F079
:101600000400606594F85C00102100F01F00814028
:10161000394258D02068B04234D0404532D0484595
:1016200030D050452ED058452CD0534A18329042D5
:1016300028D0514A3032904224D04F4A483290420A
:1016400020D04E4A90421DD04C4A1832904219D0B8
:101650004A4A3032904215D0484A4832904200E01F
:1016600014E00FD0454A603290420BD0434A7832A2
:10167000904207D0414A9032904203D03F4AA8326C
:10168000904207D1006800F0080006E0006872E7A9
:101690000068B7E7006800F00400A0B1A960206806
:1016A0000168490304D50068000308D5A16C07E070
:1016B0000168C90503D4016821F008010160216CAB
:1016C00009B12046884794F85C00202100F01F00F3
:1016D0008140394279D02068B04232D0404530D084
:1016E00048452ED050452CD058452AD0224A183291
:1016F000904226D0204A3032904222D01E4A4832B0
:1017000090421ED01D4A90421BD01C4A1832904273
:1017100017D01A4A3032904213D0184A48329042B9
:101720000FD0164A603290420BD0144A7832904261
:1017300007D0124A9032904203D0104AA832904209
:1017400003D1006800F0100002E0006800F0020021
:10175000B0B3A96094F835000428206801680FD060
:1017600049037ED5006800032BD4616C2AE0000099
:10177000100002400C0000247000024010040240DF
:1017800021F0160101602068416921F0800141616A
:10179000206C08B9A06C20B12068016821F0080114
:1017A000016094F85C303F21012003F01F03002208
:1017B0009940A96084F8350084F83420216D65E0F3
:1017C00003E0E16B09B120468847606D00287DD0B9
:1017D000606DC00759D02068042184F83510B042EC
:1017E0002BD0404529D0484527D0504525D05845D5
:1017F00023D09D49884220D09B49183188421CD073
:1018000099493031884218D09849884215D0974973
:101810001831884211D09549303188420DD0934912
:101820004831884209D091496031884205D08F49BA
:101830007831884201D08D499031016821F0010151
:10184000016020680099019A491C0091914202D8D8
:101850000168C907F6D10068C00710D003200FE067
:10186000FFE70168C905ACD403680121002223F019
:101870001003036084F8351084F83420A1E70120B8
:1018800084F83500002084F83400E16C00291DD074
:1018900002B02046BDE8F05F0847754988421DD078
:1018A00073491431884219D071492831884215D0C2
:1018B0006F493C31884211D06D49503188420DD07A
:1018C0006B496431884209D0694900E084E078318D
:1018D000884203D066498C3188427DD194F85C807F
:1018E0000427016808F01F0807FA08F717EA0C0F29
:1018F000009746D04F0744D500980F04686003D581
:10190000C8033CD4A16CC1E7880638D42068B04233
:101910002DD055496039884229D0484527D05045B7
:1019200025D0584523D05049884220D04E491831FF
:1019300088421CD04C493031884218D04B498842EB
:1019400015D04A491831884211D04849303188426F
:101950000DD046494831884209D0704507D09042A1
:1019600005D0984203D04149A831884203D101688B
:1019700021F0080102E0016821F004010160216CFE
:1019800084E7022707FA08F717EA0C0F00974ED0F2
:101990008F074CD500980F04686003D5C80344D462
:1019A000616C73E7880640D42068B0422FD02E497E
:1019B000603988422BD0484529D0504527D058451A
:1019C00025D02949884222D02749183188421ED083
:1019D00025493031884200E044E018D0234988424C
:1019E00015D022491831884211D02049303188421F
:1019F0000DD01E494831884209D0704507D0904229
:101A000005D0984203D01949A831884203D1016812
:101A100021F0140102E0016821F00A0101600121B6
:101A200084F83510002084F83400E16B2EE708229A
:101A300002FA08F212EA0C0F14D0090712D5016855
:101A400021F00E01016094F85C100120002201F0E9
:101A50001F0100FA01F16960606584F8350084F8BF
:101A6000342012E7BDE8FC9F8800024010040240C9
:101A7000085402582DE9F05F044600F04DFC002C9C
:101A800007467DD0E24E022120684FF00308DFF8C0
:101A900084934FF00005DFF880A3B042DFF87CB3F9
:101AA00034D0DB4A1832904230D048452ED05045D1
:101AB0002CD058452AD0D94A1832904226D0D74A3D
:101AC0003032904222D0D54A483290421ED0D44A79
:101AD00090421BD0D24A1832904217D0D04A3032AE
:101AE000904213D0CE4A483290420FD0CC4A603256
:101AF00090420BD0CA4A7832904207D0C84A9032FE
:101B0000904203D0C64AA83290427DD184F8351065
:101B1000B04284F834502ED0BD49183188422AD0C2
:101B2000484528D0504526D0584524D0BB491831C7
:101B3000884220D0B949303188421CD0B749483159
:101B4000884218D0B649884215D0B5491831884224
:101B500011D0B349303188420DD0B1494831884263
:101B600009D0AF496031884205D0AD49783188420B
:101B700001D0AB499031016821F00101016008E01A
:101B800025E100BF00F0C8FBC01B052801D92021BA
:101B90001AE120680068C007F4D1D4E90203216883
:101BA000103418438E4694E88410D4E90338096849
:101BB0003A4310439B4A40EA0C00676918431140BE
:101BC000103C40EA0800042F40EA010003D1D4E9A8
:101BD0000B12114308436168A1F12902052A0BD9B0
:101BE000163A032A08D9083A012A05D9083A032ADD
:101BF00002D97439032901D840F48010CEF80000CE
:101C00002068676A406900E020E0042F20F00700A8
:101C100047EA00070DD1D4E90A01074349B120463C
:101C2000FEF78CFD28B140206065012184F8351055
:101C3000CDE0206847612046FEF79EFC94F85C20CA
:101C40003F2102F01F029140816055E0764A9042A8
:101C50001BD0754B1433984217D0734B28339842DE
:101C600013D0714B3C3398420FD06F4B5033984296
:101C70000BD06D4B6433984207D06B4B783398424E
:101C800003D0694B8C3398427ED184F8351084F8A8
:101C90003450664B0168A26801EA030E402A74D0F2
:101CA000802A73D05FF00002D4E90378D4E90531CB
:101CB00042EAD70242EAD8085B4AD4E9077C48EAFC
:101CC000D30848EAD10141EAD701524241EA1C1146
:101CD000142341EA0E01016020681044B0FBF3F0C8
:101CE0008000E0652046FEF747FC94F85C20012167
:101CF00002F01F02914041602068B04257D0444931
:101D00001831884253D0484551D050454FD058459E
:101D10004DD042491831884249D04049303188423B
:101D200045D03E494831884241D03D4988423ED065
:101D30003B49183188423AD039493031884236D04F
:101D400037494831884232D03549603188422ED0F7
:101D50003349783188422AD031499031884226D09F
:101D60002F49A831884222D02F4988421FD02E49BE
:101D7000143188421BD02C492831884217D02A4977
:101D80003C31884213D002E01DE017E018E02649FC
:101D9000503188420BD024496431884207D022490F
:101DA0007831884203D020498C31884229D120469D
:101DB000FEF73CFCA06880280CD00CE0102273E7F2
:101DC0004FF4804270E74021616584F8358001203E
:101DD000BDE8F09F6560216E20790860D4E91901A3
:101DE00041606068401E072808D82046FEF76CFC5A
:101DF000E06E0560D4E91C01416002E0E5662567FC
:101E000065670120656584F835000020E0E7000083
:101E100010000240400002405800024070000240A2
:101E2000100402403F8010FE085402580F00FEFFCD
:101E30002DE9F84F04008C464FF00000009014D0BC
:101E400094F83400012812D094F835500120002174
:101E500084F83400012D0CD0C00260650120009090
:101E600084F834100098BDE8F88F0120FBE70220C9
:101E7000F9E78C4D0226206884F83560A8428A4D27
:101E800061658A4E8A4FDFF82C82DFF82C92DFF8EA
:101E90002CA2DFF82CB226D0A84224D0B04222D007
:101EA000B84220D040451ED048451CD050451AD0DD
:101EB000584518D08349884215D082491831884244
:101EC00011D08049303188420DD07E494831884256
:101ED00009D07C496031884205D07A4978318842FE
:101EE00001D078499031016821F00101016061461B
:101EF0002046FEF74DFC6B49206888422CD0A84252
:101F00002AD0B04228D0B84226D0404524D04845F7
:101F100022D0504520D058451ED06A4A90421BD04E
:101F2000684A1832904217D0664A3032904213D035
:101F3000644A483290420FD0624A603290420BD0DD
:101F4000604A7832904207D05E4A9032904203D085
:101F50005C4AA83290420CD1026822F01E0242F084
:101F600016020260206C88B12068026842F0080204
:101F70000BE0026822F00E0242F00A020260206CBE
:101F800020B12068026842F00402026020688842A2
:101F90004BD0A84249D0B04247D0B84245D0404586
:101FA00043D0484541D050453FD058453DD0454AA3
:101FB00090423AD0434A1832904236D0414A3032A9
:101FC000904232D03F4A483290422ED03D4A603251
:101FD00090422AD03B4A7832904226D0394A9032F9
:101FE000904222D0374AA83290421ED0364A9042C0
:101FF0001BD0354A1432904217D0334A28329042CF
:1020000013D0314A3C3290420FD02F4A5032904286
:102010000BD02D4A6432904207D02B4A783290423E
:1020200003D0294A8C3290420DD1206E0268D2032F
:1020300003D5026842F480720260E06E18B1026853
:1020400042F4807202602068884226D0A84224D0E0
:10205000B04222D0B84220D040451ED048451CD0C6
:1020600050451AD0584518D01649884215D0154900
:102070001831884211D01349303188420DD01149AE
:102080004831884209D00F496031884205D00D4956
:102090007831884201D00B499031016841F001014B
:1020A0000160DFE6100002402800024040000240CC
:1020B000580002407000024088000240A000024028
:1020C000B8000240100402400854025870B504469B
:1020D00000F022F90546601C02D004480078044450
:1020E00000F01AF9401BA042FAD370BD0000002492
:1020F0002DE9F84F03247A4D00234FF001094FF0EA
:10210000B04B4FF00F0AE4E009FA03F6324078D002
:102110000F7907F00307012F01D0022F1AD187682A
:102120004FEA430ED1F80CC004FA0EF827EA08076C
:102130000CFA0EFC4CEA070CC0F808C0476891F88E
:1021400004C0B743CCF3001C0CFA03FC4CEA070CA8
:10215000C0F804C00E79F643B6070BD0C6684FEA44
:1021600043088F6804FA08FC26EA0C0607FA08F709
:102170003743C7600E7906F00306022E12D1DE083F
:102180000F694FEA437C00EB8606B646366A4FEA93
:10219000DC6C0AFA0CF807FA0CF726EA0806374353
:1021A000CEF820700F7906684FEA430807F003075E
:1021B00004FA08FC07FA08F726EA0C06374307601A
:1021C0004E6816F4403F1CD0464E376847F0020771
:1021D000376036689F0706F00206009623F0030674
:1021E00006F1B046B6463F0FD6F80864DFF8F8802F
:1021F0000AFA07FC404526EA0C0603D14FF0000C12
:102200003AE065E0DFF8E4C0604502D14FF0010C30
:1022100032E0DFF8DCC0604502D14FF0020C2BE069
:10222000DFF8D0C0604502D14FF0030C24E0DFF8A6
:10223000C8C0604502D14FF0040C1DE0DFF8BCC0FF
:10224000604502D14FF0050C16E0DFF8B4C06045E0
:1022500002D14FF0060C0FE0DFF8A8C0604502D1B4
:102260004FF0070C08E0DFF8A0C0604502D14FF046
:10227000090C01E04FF00A0C0CFA07FC4CEA060CC2
:10228000CEF808C44F68DBF80060FF0226EA0206B9
:1022900000D516435F46CBF80060D1F804C0DBF8E8
:1022A00004605FEA8C2C26EA020600D516437E60A5
:1022B0006E684F6826EA0206BF0300D516436E60BB
:1022C0002E684F6826EA0206FF0300D516432E60EB
:1022D0005B1C0A6832FA03F67FF416AFBDE8F88F8C
:1022E00080000058F44402580000025800040258CC
:1022F00000080258000C025800100258001402583E
:1023000000180258001C0258002402580AB18161CA
:1023100070470904FBE7000001488068704700002F
:1023200000000024024881680278114481607047EF
:1023300000000024032010B500F0D4F801F076F876
:102340000F4A104914681368C4F3032203F00F0303
:102350008A5CC95C02F01F0201F01F01D0400A4AEA
:1023600020FA01F11160094908600F2000F010F80F
:1023700008B1012010BD00F079F8002010BD000068
:10238000184402588E4F0008100000240C0000244E
:1023900070B50D4D04462878A0B14FF47A71B1FBA9
:1023A000F0F00A490968B1FBF0F001F06EFB48B9A2
:1023B000102C07D200222146501E00F073F8002096
:1023C0006C6070BD012070BD000000240C00002472
:1023D000154BF0B5083B427813491A600B680A1F89
:1023E00023F001030B6043681360057BC67A827A91
:1023F000437B2D07847B45EA0665C77B90F809C0BF
:10240000067A90F800E045EAC24040EA834040EA9C
:10241000444040EA074040EA0C2040EA460040EAD7
:102420000E000860F0BD0000A0ED00E0BFF35F8F7C
:10243000044800210368034A23F4803303607032A8
:102440001160704724ED00E0074A40F001000649A2
:1024500070321060086840F480300860BFF34F8F1E
:10246000BFF36F8F7047000024ED00E0054808B50A
:10247000016841F002010160006800F00200009074
:1024800008BD0000F4440258002809DB410900F0AF
:102490001F028900012001F1E0219040C1F80001F4
:1024A000704700000E4BF0B41B680D46C3F30223C7
:1024B000C3F10706042E00D90426191D072901D2ED
:1024C000002300E0DB1E012404FA06F19C40491EB3
:1024D0002940641E994014402143F0BC02F099BC8D
:1024E0000CED00E0064900F0070210B54FF6FF04BE
:1024F0000868044B204040EA02201843086010BDE1
:102500000CED00E00000FA05134970B50A68D243EB
:10251000520705D5096801F00701814213D118E07F
:102520000A6822F0070202430A60FFF7F5FE0A4D2F
:102530004FF47A760446083D07E000BFFFF7ECFE53
:10254000001BB04201D9012070BD2868C04380043F
:10255000F4D4002070BD00000C48025810B500F003
:102560001FFF05490968054AC1F30211515C01F0DA
:102570001F01C84010BD0000204402588E4F0008C3
:10258000494930B5484C0B1D0A68143409681D6868
:10259000246802F00303C5F30012C1F30531C4F34C
:1025A000CC04002914FB02F200EE102AF8EE400AD7
:1025B00075D03F4A9FED3D1AB7EE000A6BB1DFEDD3
:1025C0003D1A012B01D0022B64D002EE101A1168C3
:1025D000F8EE422A81EEA22A21E0334C283C2368FF
:1025E0009B0612D5344B246801EE901A1168C4F38F
:1025F000C104F8EE612AE34001EE903AC1F308010C
:10260000F8EE611A81EEA22A0BE001EE901ADFEDDE
:102610002B2A00BFF8EE611A116882EEA12AC1F3DD
:10262000080101EE901A1168F8EE611A40EE811A65
:1026300071EE800A62EE200AC1F3462101EE101A03
:10264000B8EE411A31EE001AC0EE811ABCEEE11A62
:1026500080ED001A1168C1F3064101EE101AB8EEC0
:10266000411A31EE001AC0EE811ABCEEE11A80ED7B
:10267000011A1168C1F3066101EE101AB8EE411A91
:1026800031EE000A80EE801ABCEEC10A80ED020A2B
:1026900030BD04E001EE901ADFED092ABAE700210F
:1026A000016041608160F3E728440258000000396E
:1026B000384402580024744A0090D0030024744C1B
:1026C000001BB74B494930B5484C0B1D0A681C34F8
:1026D00009681D68246802F00303C5F30022C1F3F2
:1026E0000551C4F3CC04002914FB02F200EE102AB9
:1026F000F8EE400A75D03F4A9FED3D1AB7EE000A4A
:102700006BB1DFED3D1A012B01D0022B64D002EE3C
:10271000101A1168F8EE422A81EEA22A21E0334C09
:10272000283C23689B0612D5344B246801EE901A8E
:102730001168C4F3C104F8EE612AE34001EE903A57
:10274000C1F30801F8EE611A81EEA22A0BE001EE56
:10275000901ADFED2B2A00BFF8EE611A116882EEA5
:10276000A12AC1F3080101EE901A1168F8EE611A6E
:1027700040EE811A71EE800A62EE200AC1F3462112
:1027800001EE101AB8EE411A31EE001AC0EE811AAD
:10279000BCEEE11A80ED001A1168C1F3064101EEAA
:1027A000101AB8EE411A31EE001AC0EE811ABCEED2
:1027B000E11A80ED011A1168C1F3066101EE101AE9
:1027C000B8EE411A31EE000A80EE801ABCEEC10A62
:1027D00080ED020A30BD04E001EE901ADFED092A17
:1027E000BAE70021016041608160F3E728440258A4
:1027F00000000039404402580024744A0090D0037D
:102800000024744C001BB74B2DE9FE4F0546DFF842
:1028100000A450F8081B0024FD4FC943019005F1A6
:10282000280026460AF1240A009008011DD4686E8B
:1028300050B1B0F5801F0CD0B0F5001F0ED0B0F530
:10284000401F1ED001240FE0386840F4003038608B
:1028500017E00198022101F0D1FC03E00098022169
:1028600001F05CFD04000CD026462888C043C0055A
:1028700023D4A86D05281ED2DFE800F00C11161B2A
:102880001B006A6EDAF8001021F440111143CAF8F7
:102890000010EAE7386840F40030386009E0019839
:1028A000002101F0ABFC03E00098002101F036FDAF
:1028B0000446C4B100E0012426462888DFF850838E
:1028C000C04308F12C0840052FD4D5F8A400B0F57A
:1028D000C00F28D010DCB8B1B0F5001F19D0B0F58A
:1028E000800F0FD11AE0AA6DDAF8001021F007016D
:1028F0001143CAF80010E0E7B0F5000F13D0B0F5AF
:10290000200F10D001240FE0386840F40030386008
:1029100009E00198002101F071FC03E0009800211A
:1029200001F0FCFC044694B126462888C04300050B
:1029300030D4D5F8A800B0F1407F29D011DCC0B167
:10294000B0F1807F1AD0B0F1007F10D11BE0D5F834
:10295000A420D8F8001021F460011143C8F8001039
:10296000E3E7B0F1806F13D0B0F1A06F10D0012475
:102970000FE0386840F40030386009E00198002129
:1029800001F03CFC03E00098002101F0C7FC044684
:1029900094B126462868DFF878B2C0430BF1200BCB
:1029A00080011FD4E86CD8B110280FD0202812D095
:1029B000302815D0012414E0D5F8A820D8F800104C
:1029C00021F0E0611143C8F80010E3E7386840F4F3
:1029D0000030386004E00198022101F00FFC044649
:1029E00074B126462888C043C0042BD4E86DB0F5E6
:1029F000005F20D00DDCA0B1B0F5805F0FD115E0F5
:102A0000EA6CDBF8001021F030011143CBF8001024
:102A1000E8E7B0F5405F13D0B0F5804F10D0012447
:102A20000FE0386840F40030386009E00198002178
:102A300001F0E4FB03E00098002101F06FFC044684
:102A40008CB126462888C043800429D4286EB0F56E
:102A5000403F23D010DC08B3B0F5803F14D0B0F570
:102A6000003F0FD115E0EA6DDAF8001021F4E041E3
:102A70001143CAF80010E5E7B0F5802F0ED0B0F58D
:102A8000A02F0BD001240AE00198012101F0B6FB30
:102A900003E00098012101F041FC044694B1264670
:102AA0002888C04340042AD4D5F8AC00B0F1405F78
:102AB00023D010DC08B3B0F1805F14D0B0F1005F18
:102AC0000FD115E02A6EDAF8001021F4E02111434D
:102AD000CAF80010E4E7B0F1804F0ED0B0F1A04F7B
:102AE0000BD001240AE00198012101F087FB03E0EB
:102AF0000098012101F012FC044674B12646288892
:102B0000C04300041FD4E86ED8B1B0F1805F0ED08E
:102B1000B0F1005F10D0012414E0D5F8AC20D8F853
:102B2000001021F0E0411143C8F80010E7E73868D1
:102B300040F40030386004E00198012101F05EFBB0
:102B4000044674B126462868C043C0011ED4A86C50
:102B5000D0B101280ED0022811D0032814D00124AE
:102B600013E0EA6EDAF8001021F040511143CAF880
:102B70000010E8E7386840F40030386004E001985D
:102B8000022101F03BFB04466CB126462868C04395
:102B9000400255D41F48016841F480710160FFF77D
:102BA000BBFB81460EE0AA6CDBF8001021F00301AC
:102BB0001143CBF80010E9E7FFF7AEFBA0EB0900EB
:102BC00064283BD813480068C005F5D5BCBBDFF8C6
:102BD0004090B5F8B01009F14409D9F8000001F4AB
:102BE000407100F44070884211D0D9F80010D9F833
:102BF000002021F4407142F48032C9F80020D9F855
:102C0000002022F48032C9F80020C9F8001003E047
:102C10002C44025800480258D5F8B000B0F5807F27
:102C200019D1FFF779FB029011E000BFFFF774FBA9
:102C30000299411A41F28830814208D9032426467C
:102C40002878DFF81494C043C00721D03CE0D9F8BD
:102C500000008007EAD5D5F8B010C1F301200328A1
:102C6000FE480DD0016821F47C510160B5F8B02018
:102C7000D9F80010C2F30B021143C9F80010DFE7C6
:102C8000F74A036802EA111223F47C511143ECE77E
:102C9000A86F182816D005DCA0B1082808D0102885
:102CA00004D10AE020280DD028280BD001240AE006
:102CB0000198012101F0A2FA03E00098012101F03E
:102CC0002DFB044664B126462878C04380071ED4F5
:102CD000686F062819D2DFE800F0160C11161616D8
:102CE000AA6FD9F8001021F038011143C9F800107B
:102CF000EAE70198012101F081FA03E0009801213F
:102D000001F00CFB04467CB100E001242646287843
:102D1000C04340071FD4D5F89000062819D2DFE839
:102D200000F0160C111616166A6FD9F8001021F073
:102D300007011143C9F80010E9E70198012101F0EA
:102D40005DFA03E00098012101F0E8FA0446A4B11D
:102D500000E0012426462878C04380062BD4D5F80D
:102D60008C00B0F1405F24D011DC10B3B0F1805F73
:102D700015D0B0F1005F10D116E0D5F89020D8F84A
:102D8000001021F007011143C8F80010E3E7B0F18B
:102D9000804F0ED0B0F1A04F0BD001240AE0019873
:102DA000002101F02BFA03E00098022101F0B6FAAD
:102DB000044694B126462878C04340062BD4D5F863
:102DC0009800B0F5406F24D011DC10B3B0F5806FDF
:102DD00015D0B0F5006F10D116E0D5F88C20D9F8D9
:102DE000001021F0E0411143C9F80010E3E7B0F50D
:102DF000805F0ED0B0F5A05F0BD001240AE00198EF
:102E0000002101F0FBF903E00098022101F086FAAD
:102E1000044694B126462878C04300062BD4D5F842
:102E20009C00B0F5C04F24D011DC10B3B0F5005FAA
:102E300015D0B0F5804F10D116E0D5F89820D8F80D
:102E4000001021F4E0511143C8F80010E3E7B0F599
:102E5000004F0ED0B0F5204F0BD001240AE00198AE
:102E6000002101F0CBF903E00098022101F056FAAD
:102E7000044654B126462878C04300071ED4D5F82E
:102E80008000B0F5805F0AD00FE0D5F89C20D8F81C
:102E9000001021F460411143C8F80010EBE70098DE
:102EA000022101F03BFA00B10126D5F88020D9F8C3
:102EB000001021F440511143C9F800102878C04394
:102EC000C00613D4D5F89400B0F5807F05D10098E2
:102ED000022101F023FA00B10126D5F89420D8F898
:102EE000001021F440711143C8F800102868C04355
:102EF000000316D4D5F8A00038B1B0F5803F09D052
:102F0000B0F5003F0BD001240AE00198002101F048
:102F100075F903E00098022101F000FA04468CB133
:102F200026462868C043400322D4D5F88400B0F573
:102F3000801F11D0B0F5001F13D0B0F5401F15D081
:102F4000012414E0D5F8A020D8F8001021F4403175
:102F50001143C8F80010E4E7386840F400303860E6
:102F600004E00098012101F0D9F904465CB126463D
:102F70002868C043C0031CD4286D70B1B0F5803FF1
:102F800010D0012414E0D5F88420D9F8001021F4E1
:102F900040111143C9F80010EAE7386840F40030E6
:102FA000386004E00198022101F028F90446DCB100
:102FB00026462868C043800005D40098022101F00D
:102FC000ADF900B101262868C04380031BD4E86F27
:102FD000B8B1B0F5807F10D0B0F5007F11D0B0F55A
:102FE000407F0ED001240DE02A6DDBF8001021F4A3
:102FF00080311143CBF80010DBE7386840F4003033
:1030000038607CB326462868C043C00207D42A6FC4
:10301000DAF8001021F000411143CAF800102868C6
:10302000C043800207D4AA6EDAF8001021F0807144
:103030001143CAF800102868C043400009D407486B
:10304000016821F4004101600168D5F8B420114302
:1030500001602868C04306E05444025810440258F6
:10306000CFFFFF001DE007D46A6DDBF8001021F0F0
:1030700040511143CBF800102868C043000208D427
:10308000D5F88820D9F8001021F440011143C9F87F
:10309000001028790024C04300F00100204309D02B
:1030A0000EE0EA6FD9F8001021F440711143C9F81D
:1030B0000010A8E70198002101F0A0F800B1064631
:1030C0002879C04300F00200204305D10198012176
:1030D00001F094F800B106462879C04300F00400DE
:1030E000204305D10198022101F088F800B106467D
:1030F0002879C04300F00800204305D10098002142
:1031000001F00CF900B106462879C04300F0100028
:10311000204305D10098012101F000F900B10646D5
:103120002879C04300F02000044304D10098022114
:1031300001F0F4F800B916B10120BDE8FE8F0020BF
:10314000FBE700002DE9F05F04000F467ED0DFF8BA
:103150003882D8F8000000F00F00B8420CD2D8F83E
:10316000001021F00F013943C8F80010D8F8000012
:1031700000F00F00B84269D12078844D40070AD58D
:103180002069296801F07001884204D9296821F07A
:1031900070010143296020787C4E361D00070AD556
:1031A0006069316801F07001884204D9316821F00A
:1031B0007001014331602078C0060AD5A0693168EA
:1031C00001F4E061884204D9316821F4E0610143EF
:1031D00031602078DFF8B4B180060BF1080B0CD514
:1031E000E1695846DBF8002002F07002914204D9F0
:1031F000026822F070020A430260207880070AD534
:10320000E068296801F00F01884204D9296821F09B
:103210000F01014329602078C0073ED05B49A268B6
:103220002868183920F4706010432860606802280C
:1032300018D0032819D00968012819D04907002996
:103240004ADADFF848A1AAF1080A00E044E0DAF817
:10325000002022F007020243CAF80020FFF75CF8C2
:10326000814612E009688903E9E709688901E6E710
:10327000C905E4E7FFF750F8A0EB090141F28830F7
:10328000814202D90320BDE8F09F6168DAF80000AE
:1032900000F03800B0EBC10FECD1207880070AD5E0
:1032A000E068296801F00F01884204D2296821F002
:1032B0000F0101432960D8F80010404601F00F01CA
:1032C000B9420BD9016821F00F0139430160006850
:1032D00000F00F00B84201D00120D4E72078400769
:1032E0000AD52069296801F07001884204D2296852
:1032F00021F0700101432960207800070AD5606938
:10330000316801F07001884204D2316821F0700107
:10331000014331602078C0060AD5A069316801F404
:10332000E061884204D2316821F4E06101433160F8
:10333000207880060CD5E1695846DBF8002002F0C1
:103340007002914204D2026822F070020A430260C5
:1033500000F06CF80E492A682B68C2F3032203F0D0
:103360000F038A5CC95C02F01F0201F01F01D0400C
:10337000084A20FA01F1116007490860074800680F
:10338000BDE8F05FFFF704B800200052184402586F
:103390008E4F0008100000240C00002404000024BC
:1033A00030B500F043F80B4A0B490C4B1568146814
:1033B000C5F3032204F00F048A5C095D02F01F02CA
:1033C00001F01F01D040064A20FA01F11960106097
:1033D000084630BD184402588E4F000810000024E3
:1033E0000C00002400B5FFF7DBFF05490968054A1A
:1033F000C1F30211515C01F01F01C84000BD000083
:103400001C4402588E4F000800B5FFF7C9FF05495C
:103410000968054AC1F30221515C01F01F01C8404F
:1034200000BD00001C4402588E4F0008454970B58D
:1034300045480968434B103B11F0380208D0011190
:10344000082A03D0102A0BD0182A0BD0084670BDCA
:1034500019688906FBD51968C1F3C101C84070BD60
:103460003A4870BD3749374D18310C1D24350A686C
:10347000096826682D6802F0030406F00102C1F312
:103480000511C5F3CC0515FB02F200EE102AB8EECB
:10349000400AE9B32F4ADFED2E0AB7EE001A6CB1ED
:1034A000DFED2D1A012C01D0022C43D002EE101AB0
:1034B0001068F8EE422A81EEA22A1EE01C68A406DB
:1034C00011D51B6801EE901A1168C3F3C103F8EE21
:1034D000612AD84001EE900AC1F30800F8EE611AA3
:1034E00081EEA22A0BE001EE901ADFED1C2A00BF4C
:1034F000F8EE611A106882EEA12AC0F3080001EE0E
:10350000900AF8EE611A40EE201A31EE810A00E0CE
:1035100015E022EE000A1068C0F34620401C00EEC1
:10352000900AF8EE600A80EE201ABCEEC10A10EE96
:10353000100A70BD01EE901ADFED092AD8E70020CD
:1035400070BD0000104402580090D00300366E0198
:1035500000000039304402580024744A0024744C9E
:10356000001BB74B2DE9F05F04007DD0FF4F2078A2
:10357000FE4D1837DFF8F483103DC00748D0D8F867
:103580000000396800F03800102815D0182803D141
:1035900001F0030002280FD06068B0F5803F12D020
:1035A00010B1B0F5A02F18D0286820F48030286022
:1035B000286820F4802009E02868800328D5606806
:1035C0000028D2D024E0286840F480302860606869
:1035D00088B1FEF7A1FE064609E0286840F4802085
:1035E0002860F0E7FEF798FE801B64287ED82868E4
:1035F0008003F7D50CE0FEF78FFE064605E000BF1E
:10360000FEF78AFE801B6428F0D828688003F7D470
:103610002078800756D5D8F80000DFF85093396835
:1036200010F03800A9F10C090ED0182801D1880734
:103630000AD0E068A8B3296821F019010143296084
:10364000FEF76AFE064628E02868400702D5E068D3
:1036500000288AD0E168286820F019000843286013
:10366000FEF75AFE064606E0D2E000BFFEF754FE23
:10367000801B0228BAD828684007F7D5217CD9F8E2
:10368000002022F0FE4242EA0161C9F8001019E070
:10369000FEF742FE801B0228A8D828684007F7D50D
:1036A000ECE7FFE7286820F001002860FEF734FE11
:1036B000064604E0FEF730FE801B022896D82868F4
:1036C0004007F7D42078C00646D5D8F80000DFF8C8
:1036D0009C92396800F03800A9F10409082812D03A
:1036E000182805D101F00300012800E0CEE00AD03F
:1036F000E0690028286820D040F080002860FEF7AC
:103700000BFE064615E02868C00502D5E069802852
:103710007ED194F82010D9F8002022F07C5242EAA1
:103720000161C9F8001017E0FEF7F6FD801B0228C2
:10373000A0D82868C005F7D5EBE720F08000286006
:10374000FEF7EAFD064604E0FEF7E6FD801B0228D0
:1037500090D82868C005F7D42078000729D5834879
:103760006169643000298146016811D041F001018E
:103770000160FEF7D1FD064605E000BFFEF7CCFD77
:10378000801B022888D8D9F800008007F6D510E001
:1037900021F001010160FEF7BFFD064605E000BF14
:1037A000FEF7BAFD801B022870D8D9F80000800708
:1037B000F6D42078800623D5A0690028286810D088
:1037C00040F480502860FEF7A7FD064605E000BFE4
:1037D000FEF7A2FD801B022858D828688004F7D580
:1037E0000EE020F480502860FEF796FD064604E0C7
:1037F000FEF792FD801B022848D828688004F7D481
:103800002078400751D5DFF86891D9F8001000E022
:1038100015E141F48071C9F80010FEF77DFD064600
:1038200005E000BFFEF778FD801B64282ED8D9F88C
:103830000000C005F6D54D4EA068603601280AD0BC
:1038400008B1052813D0306820F0010030603068DE
:1038500020F0040002E0306840F001003060A06811
:1038600041F2883A98B1FEF757FD81460AE0306888
:1038700040F004003060EEE7FEF74EFDA0EB0901DA
:10388000514503D830688007F6D50EE072E0FEF7A8
:1038900043FD814606E000BFFEF73EFDA0EB0901B7
:1038A000514567D830688007F6D4606A00287CD01C
:1038B000DFF8B8A0D8F800100AF1200A4FF6F87B1C
:1038C0000AF10408C1F3C2010329AAF104096DD069
:1038D0000228286820F08070286003D0FEF71CFDC5
:1038E000044681E0FEF718FD064604E0FEF714FDED
:1038F000801B022875D828688001F7D4E26A40F25C
:10390000F331386854F8283F884340EA02101843DE
:103910003860217B4FF4FE0C22894FF0FE47208A4D
:103920004902267D521E401EA1F5007189B2C2F3E4
:1039300008021143761E0CEA00400143484607EA9C
:1039400006621143CAF80010D9F8001021F00101F5
:10395000C9F80010D8F80030266A23EA0B0343EABE
:10396000C601C8F80010D9F8001004E0104402584D
:103970000048025835E0A26921F00C011143C9F852
:1039800000100168E26921F0020111430160016841
:1039900041F480310160016841F400310160016847
:1039A00041F480210160016801E06CE020E041F019
:1039B00001010160286840F080702860FEF7ACFCCF
:1039C000044604E0FEF7A8FC001B022809D828687A
:1039D0008001F7D557E000BFFEF79EFC001B0228D0
:1039E00002D90320BDE8F09F28688001F4D44AE0A2
:1039F00039680128DAF8000021D0A26A01F0030337
:103A000093421CD1E26AC1F305118A4217D1216B9E
:103A1000C0F30802491E8A4211D1616BC0F34622ED
:103A2000491E91420BD1A16BC0F30642491E91423F
:103A300005D1E16BC0F30660491E814201D001202F
:103A4000D0E7A16C4646D8F80000C0F3CC00814214
:103A500019D0D9F800004D4620F00100C9F8000047
:103A6000FEF75AFC4FEA0007FEF756FCB842FBD0BF
:103A7000A26C306820EA0B0040EAC200306028687F
:103A800040F0010028600020ACE7401EB0F1807FCC
:103A900010B501D3012010BD4FF0E02460610F216B
:103AA000601701F0B6F90020A0610721216110BD67
:103AB00030B590F88410012918D0012280F88420B4
:103AC0002421C0F888100022202401680B680D68AA
:103AD00023F0005325F001050D60426601680B607C
:103AE000C0F8884080F88420104630BD022030BDE8
:103AF00010B50446D0F88C00202801D0022010BD5B
:103B000061B15AB10123E36600202067204601F02D
:103B1000DBF80028F3D1E16E012901D0012010BDAE
:103B2000226810211162226852E8001F41F0100142
:103B300042E80013002BF6D110BD0000034A90426A
:103B400002D10846FCF790BF704700001400002423
:103B5000704770B5044690F8840001281DD00122FA
:103B600084F884202420C4F888002068056802684E
:103B700022F0010202602068826822F060620A433B
:103B80008260204600F014FD22682021002015608C
:103B9000C4F8881084F8840070BD022070BD70B530
:103BA000044690F8840001281DD0012284F8842066
:103BB0002420C4F8880020680568026822F0010209
:103BC00002602068826822F060420A4382602046D8
:103BD00000F0EEFC2268202100201560C4F8881057
:103BE00084F8840070BD022070BD70477047704734
:103BF0002DE9F04107680025044640F60F03022630
:103C0000F8693968BA6818420AD183067ED501F08E
:103C1000200302F0805C53EA0C0377D0616F7EE1F1
:103C2000D44BDFF854C3134001EA0C0C53EA0C0CDC
:103C30006CD05FEAC07C0CD05FEAC15C09D54FF064
:103C4000010CC7F820C0D4F8907047F00107C4F801
:103C50009070870709D5D70707D027683E62D4F848
:103C6000906046F00406C4F8906046070AD5D6076F
:103C700008D0276804263E62D4F8906046F0020619
:103C8000C4F8906006070CD501F020061E4308D04A
:103C9000266808233362D4F8903043F00803C4F850
:103CA000903003050BD54B0109D526684FF400630E
:103CB0003362D4F8903043F02003C4F89030D4F845
:103CC0009030002B3DD0800609D501F0200002F095
:103CD0008051084303D0616F09B1204688472168AD
:103CE000D4F890008968490602D410F0280F2AD031
:103CF000204600F0B9FD2068806840061ED5206887
:103D0000083050E8001F21F0400100E021E040E8C9
:103D10000012002AF3D1D4F8800078B197490165E8
:103D2000D4F88000FDF7F0F900280AD0D4F880001C
:103D3000016D00E02046BDE8F04108472046FFF74E
:103D400056FFBDE8F0812046FFF751FFC4F89050C0
:103D5000F7E7D4F86CC02023BCF1010F7ED15FEAF5
:103D6000C06C7BD55FEAC16C78D5102038622068C2
:103D70008068400673D5D4F8802081491068884255
:103D800034D07F491831884230D07D493031884263
:103D90002CD07B494831884228D07949603188420B
:103DA00024D077497831884220D0754990318842B3
:103DB0001CD07349A831884218D07249884215D066
:103DC00070491831884211D06E49303188420DD087
:103DD0006C494831884209D06A496031884205D02F
:103DE00068497831884201D06649903140684FF483
:103DF00080770004000C40D0B4F85C1081423CD9BC
:103E0000A4F85E00D069B8422FD0216851E8000FB5
:103E100020F4807041E80002002AF6D120680830C2
:103E200050E8001F21F0010140E80012002AF5D1FE
:103E30002068083050E8001F21F0400140E80012DF
:103E4000002AF5D1C4F88C30E566206850E8001FE0
:103E500021F0100140E80012002A01E04AE019E0D8
:103E6000F3D1D4F88000FCF79FFF2667B4F85C001C
:103E7000B4F85E10401A81B208E0B4F85C108142D8
:103E80007FF466AFD069B842FAD126672046FFF7C3
:103E900055FE56E7B4F85C00B4F85E10B4F85E2046
:103EA000401A81B2002AF4D00029F2D0226852E8E8
:103EB000000F20F4907042E80007002FF6D1324F37
:103EC000206800F1080050E8002F02EA070240E8ED
:103ED000002CBCF1000FF3D1C4F88C30E5666567A7
:103EE000226852E8000F20F0100042E80003002B87
:103EF000F6D1CAE7C60209D5560207D54FF480109D
:103F000038622046BDE8F041FFF770BE06060AD5CC
:103F100001F0800602F40002164304D0A16F0029CC
:103F20007FF408AF0DE7420611D54A060FD52046AB
:103F3000016851E8002F22F0400241E80024002CE3
:103F4000F6D1C0F88830856700F0CFF8F9E60202B4
:103F500006D54A0004D52046BDE8F041FFF745BE2E
:103F6000C00196D5002994DA2046BDE8F041FFF75C
:103F7000EFBD0000010000102001000467470008A9
:103F80001000024010040240FEFFFFEF10B50400D5
:103F900003D0D4F8880010B107E0012010BD002044
:103FA00084F88400204600F027F82420C4F8880014
:103FB0002068016821F001010160A06A10B120466B
:103FC00000F018FB204600F091FC0128E6D02068A4
:103FD000416821F4904141602068816821F02A0104
:103FE00081602068016841F0010101602046BDE860
:103FF000104000F063BB0000F0B5B5B006461421D8
:104000002EA8FCF74EFAB8216846FCF74AFA2D496B
:104010003068884254D100201E9001210546CDE928
:1040200000106846FEF7F0FB08B1FCF7ADFE26482D
:10403000016841F080010160006800F08000339069
:1040400021481038016841F01001016000682EA974
:1040500002241E4F00F010003390042081E831004C
:10406000CDE931503846FEF743F82EAA08200B213F
:1040700082E83100CDE931512EA93846FEF738F8F3
:10408000134C7621134802152060C4E90115D001B4
:10409000C4E903526561A561C4E907502046656221
:1040A000FDF7E8FC08B1FCF76FFE0022C6F880407F
:1040B0009C201146A663FEF7F5F99C20FEF7E4F973
:1040C00035B0F0BD001C0140F04402580010025809
:1040D000A8000024100002400249884201D1FCF7E8
:1040E00069BC70471400002470477047FEE7000069
:1040F000094808B5016841F001010160006800222B
:10410000114600F0010000900B20FEF7CBF9BDE84E
:1041100008400B20FEF7B8B9D844025830B587B034
:1041200014216846FCF7BDF91648016841F01001FA
:104130000160016801F010010591016841F004017E
:104140000160016801F004010591016841F08001FE
:10415000016000684FF460440B4D002200F08000C5
:10416000214605902846FEF7D1F800210094012051
:10417000CDE90101284603916946FDF7B9FF07B073
:1041800030BD0000E04402580008025817480021E2
:1041900010B5154C0C22164B0460C0E90131C1600A
:1041A000C0E904128161C161016241628162FFF76D
:1041B000EDFE08B1FCF7E8FD0C480021FFF7EFFC2D
:1041C00008B1FCF7E1FD09480021FFF7C2FC08B186
:1041D000FCF7DAFD0548FFF76BFC002803D0BDE8CB
:1041E0001040FCF7D1BD10BD001C0140140000249C
:1041F000A0680600FEE7FEE7704700002DE9F047E3
:10420000454D044689464FF0000A2868C0438007A0
:104210000AD0414E283E306820F080603060FEF7C2
:104220007BF80746B04608E00120BDE8F08700BFF4
:10423000FEF772F8C01B022867D8D8F8000000010A
:10424000F6D4206829684FF4FE0721F47C313E0241
:1042500041EA00302860207AA389B4F804C0400203
:104260002D4D2D495B1E227CACF1010C1035091D32
:10427000A0F5007080B2521ECCF3080C07EA03438D
:1042800040EA0C00184306EA0262104328600868FE
:10429000626920F0C000104308600A68A06922F03B
:1042A000200202430A60281D0A6822F010020A60F8
:1042B00002684FF6F873E4699A4342EAC402026066
:1042C0000868B9F1000F40F010020A6011D00868C8
:1042D000B9F1010F11D040F400100860D8F80000C7
:1042E000444640F08060C8F80000FEF715F8054627
:1042F0000DE0086840F40020EFE740F48010ECE7A0
:10430000FEF70AF8401B022801D903208DE7206838
:104310000001F5D5504688E7284402582DE9F047BA
:10432000454D044689464FF0000A2868C04380077F
:104330000AD0414E283E306820F080503060FDF7B2
:10434000EBFF0746B04608E00120BDE8F08700BF5C
:10435000FDF7E2FFC01B022867D8D8F800008000F4
:10436000F6D4208829684FF4FE0721F07C713E02C4
:1043700041EA00502860207AA389B4F804C04002C2
:104380002D4D2D495B1E227CACF1010C1835091D09
:10439000A0F5007080B2521ECCF3080C07EA03436C
:1043A00040EA0C00184306EA0262104328600868DD
:1043B000626920F44060104308600A68A06922F432
:1043C000007202430A60281D0A6822F480720A60A3
:1043D00002684FF6F873E4699A4342EAC402026045
:1043E0000868B9F1000F40F480720A6011D00868C3
:1043F000B9F1010F11D040F080700860D8F80000CA
:10440000444640F08050C8F80000FDF785FF05469F
:104410000DE0086840F48000EFE740F40000ECE7AE
:10442000FDF77AFF401B022801D903208DE72068A1
:104430008000F5D5504688E7284402587047FDF7BC
:1044400071BF000030B59DB04C216846FCF729F8DB
:10445000202113A8FCF725F80220FEF755F81D4887
:10446000016821F4404101600168002401F44041E9
:104470001B9101688904FCD502200A902823099029
:10448000C20301210C25CDE90012CDE90B03CDE9D2
:104490000D10CDE910540F9068461294FFF762F8A2
:1044A00008B172B6FEE740201A9008230501CDE955
:1044B000163013ABCDE918053F21032283E816001F
:1044C00013A81146FEF73EFE002801D072B6FEE7A3
:1044D0001DB030BD184802582D48F0B52D4A01686E
:1044E00041F470010160106800F00F00072804D249
:1044F000106820F00F00C01D106027490020264CD6
:1045000010340B68254D43F001030B6020600B68ED
:104510002B400B60136803F00F03072B04D91368BB
:1045200023F00F03DB1D13601B4C1D4A18341D4B79
:10453000261D371D2060184C1B4D28343060261D69
:104540003860371D23603B1D35601C1D3A60251DFA
:104550002E1D1860331D22602860326018600B68C1
:104560000D4A0D4C23F48023D4320B60603420605C
:104570001068C0040BD4136843F2D2000B4943F413
:10458000805313600860106820F480501060F0BD04
:1045900088ED00E000200052004402587FEDF6EA6A
:1045A00080020101000202020000FF0100400052EF
:1045B00030B5416EB9B101680D4B03F108048A684A
:1045C0008968C2F34262490F5D5C615C2D01B5FBF5
:1045D000F1F1A0F86A10995CA25C0901B1FBF2F15B
:1045E000A0F8681030BD0121A0F86A10F8E70000BB
:1045F0007E4F000890F82810090706D50168836BE4
:104600004A6822F400421A434A6090F82810C90709
:1046100006D00168C36A4A6822F400321A434A602D
:1046200090F82810890706D50168036B4A6822F4C0
:1046300080321A434A6090F82810490706D501686D
:10464000436B4A6822F480221A434A6090F828108B
:10465000C90606D50168C36B8A6822F480521A43E2
:104660008A6090F82810890606D50168036C8A686C
:1046700022F400521A438A6090F82810490611D596
:104680000168436C4A6822F480121A434A60416C04
:10469000B1F5801F06D10168836C4A6822F4C0021C
:1046A0001A434A6090F82810090606D50168C26CC2
:1046B000486820F400201043486070472DE9F84313
:1046C00000250446C0F89050FDF726FE804620687D
:1046D00020266FF07E470068000713D5002243466E
:1046E00031042046009700F043FB58B1216851E89F
:1046F000000F20F0800041E80002002AF6D1C4F843
:10470000886021E020680068400722D500224346E7
:104710004FF480012046009700F02AFBC8B12068C2
:1047200050E8001F21F4907140E80012002AF6D1F1
:104730002068083050E8001F21F0010140E8001215
:10474000002AF5D1C4F88C60032084F88450BDE8B9
:10475000F883C4F88860C4F88C60E566256700209B
:1047600084F88450F3E710B5806B0021A0F85E1048
:10477000FFF73DFA10BD70B5846B00252168D4F8B1
:104780008800D4F88C608968090606D5212804D1F0
:10479000A4F85650204600F091F820688068400642
:1047A00006D5222E04D1A4F85E50204600F05CF815
:1047B000D4F8900040F01000C4F890002046FFF7B5
:1047C00016FA70BD10B5C1690022806BB1F5807F0B
:1047D0002DD0A0F85E20036853E8001F21F48071FB
:1047E00043E80014002CF6D10168083151E8003F7D
:1047F00023F0010341E80034002CF5D101680831B1
:1048000051E8003F23F0400341E80034002CF5D18B
:104810002021C0F88C10C16E012908D1016851E82F
:10482000003F23F0100341E80034002CF6D102676A
:10483000C16E012902D0FFF74FFC10BDB0F85C102B
:10484000FFF77CF910BD10B5806B01210167C16EC7
:10485000012902D0FFF748FC10BDB0F85C104908F0
:10486000FFF76CF910BD000010B5026852E8001F98
:1048700021F4907142E80013002BF6D10E4B026830
:10488000083252E8001F194042E80014002CF6D10B
:10489000C16E012908D1026852E8001F21F0100101
:1048A00042E80013002BF6D100212022C0F88C2012
:1048B000C166416710BD0000FEFFFFEF026852E8CD
:1048C000001F21F0C00142E80013002BF6D101685F
:1048D000083151E8002F22F4000241E80023002BA8
:1048E000F5D12021C0F88810704700002DE9F04371
:1048F00004468068E24E87B0E24B2168D4E9042781
:10490000D4F81CC010430A68002547EA0C07384356
:10491000324002430A602068E268416821F4405155
:10492000114341602268A1699A4201D0206A014383
:104930009668DFF854C3D54FD54806EA0C060E43F7
:1049400096602168666ACA6A22F00F023243CA6220
:104950002268BA420ED1006800F0380018286FD0E3
:104960007ADCB8B308286CD010286BD18BE02828EB
:1049700068D18EE0C7498A4209D1006800F007007B
:1049800006285FD2DFE800F0507D7F818385C24931
:104990008A4209D1006800F0070006287BD2DFE8D0
:1049A00000F0437072747678BC498A4209D100687D
:1049B00000F0070006286ED2DFE800F03663656776
:1049C000696BB7498A420BD1006800F007000628DE
:1049D00061D200E043E0DFE800F0275456585A5C0B
:1049E000B0498A4206D1006800F0380018284CD03F
:1049F000B7DD31E0AC498A4209D1006800F0070018
:104A0000062848D2DFE800F0103D3F414345A74962
:104A10008A420BD1006800F0070006283BD2DFE88D
:104A200000F0033032343638002035E0A0498A42A5
:104A300009D1006800F03800182826D091DD0BE07D
:104A400023E01EE027E09B498A420AD1006800F07B
:104A50003800182819D084DD202888D11CE00120D6
:104A60001AE09A4217D18A48001D006800F007003A
:104A7000062810D2DFE800F0030507090B0D02201D
:104A80000AE0042008E0082006E0102004E02020CE
:104A900002E0402000E080208749DFF820829A422F
:104AA000874A4FF400434FEA21174FF000064ED1DA
:104AB00010281AD006DC022809D004280BD00828B8
:104AC0007ED10DE020283ED0402879D13DE0FDF791
:104AD00045FD014610E06846FDF752FD01990BE0E7
:104AE00003A8FDF7EFFD049906E01068800605D5E0
:104AF0001068C0F3C100C140002970D0606A6768C7
:104B000038F8102007EB4703B1FBF2F0834257D887
:104B1000B0EB073F54D8002308461946FBF74AFC80
:104B200002467808130E120243EA012110183A4691
:104B300071410023FBF73EFC624AA0F540719142AF
:104B40003ED821688FE03946D8E71946D6E7D4F831
:104B50001CC04FF6EF799C4546D1082819D005DCDA
:104B600058B101280CD0042875D10DE0102815D0BB
:104B7000202835D040286ED134E0FEF733FC01E028
:104B8000FEF742FC014610E06846FDF7F9FC01998A
:104B90000BE003A8FDF796FD049906E01068800677
:104BA00004D51068C0F3C100C140C1B1636A606838
:104BB00038F81330B1FBF3F1490001EB500100E08C
:104BC00049E0B1FBF0F0A0F11001494543D84FF6A0
:104BD000F0732168C0F342021840104343E043E001
:104BE0003946E3E71946E1E7082819D005DC58B152
:104BF00001280CD004282ED10DE0102815D0202833
:104C00002BD0402827D12AE0FEF7ECFB01E0FEF78D
:104C1000FBFB014610E06846FDF7B2FC01990BE092
:104C200003A8FDF74FFD049906E01068800604D53F
:104C30001068C0F3C100C140B1B1636A606838F860
:104C40001330B1FBF3F101EB5001B1FBF0F0A0F137
:104C50001001494505D9012506E03946EDE7194619
:104C6000EBE7216880B2C8600120A4F86A00A4F8CC
:104C7000680028466667A66707B0BDE8F0830000B5
:104C8000F369FFCF000C0058FFF4FF110010014042
:104C9000544402580044004000480040004C00408A
:104CA000005000400014014000780040007C0040AB
:104CB00000180140001C01400090D003664F00081E
:104CC00000440258FFFC0F0070B50446D0F8800085
:104CD00000232225A165A4F85C20C4F89030C4F814
:104CE0008C50F0B11F49C163D4F880101E4808648D
:104CF000D4F880101D48C864D4F8800003651346BA
:104D0000A56D2168D4F880002A462431FDF790F87B
:104D100038B11021C4F890102020C4F88C00012074
:104D200070BD206940B1216851E8000F40F48070E7
:104D300041E80002002AF6D12068083050E8001F40
:104D400041F0010140E80012002AF5D12068083046
:104D500050E8001F41F0400140E80012002AF5D160
:104D6000002070BDC5470008474800087747000885
:104D70002DE9F047994617460D460446089E4FF028
:104D8000000833E0701C31D0FDF7C6FAA0EB090033
:104D9000B04218D8BEB120680168490726D5802DD9
:104DA00024D0402D22D0C169C94309070DD408255C
:104DB00005622046FFF758FDC4F89050012084F8A2
:104DC0008480BDE8F0870320FBE7C069C04300058D
:104DD0000CD421684FF4006008622046FFF744FDC0
:104DE0002021C4F8901084F88480ECE72068C06922
:104DF00035EA000004D00020B842C3D00020E0E72C
:104E00000120F9E70148FEF7F3BE0000140000247A
:104E1000FEE7090700284FEA116104DB00F1E020FA
:104E200080F80014704700F00F0000F1E02080F8D7
:104E3000141D7047B4EEE00AF1EE10FA02D2B0EEA3
:104E4000610A7047B4EEC10AF1EE10FA02DDB0EE6D
:104E5000420A704730EE600A32EE612A71EE600A53
:104E600020EE021A81EE200A30EE210A7047B0EEE1
:104E7000423AF4EEC10A32EEC32AF0EE613AB6EEDF
:104E8000004AF1EE10FAF0EE431A42EE041A0EDA7E
:104E9000B4EEE23AF1EE10FA09DAF4EEE03AF1EEAD
:104EA00010FA04D9F4EEC13AF1EE10FA02DBB0EEDA
:104EB000430A7047B4EEE30AF1EE10FA06D2B0EE00
:104EC000612AF0EE431AB0EE631A03E0B0EE622AF4
:104ED000F0EE630AFFF7AEBF1FB500240094019403
:104EE00002940394FDF7A2FA01208DF80C001F2113
:104EF0008DF8081087228DF809208DF80D008DF8A7
:104F0000000068468DF80A408DF80E408DF801408B
:104F100001948DF80B408DF80F40FDF759FA0420ED
:104F2000FDF792FAFDF706FAFFF78CFAFFF7F6F8AD
:104F3000FFF7DEF8FFF72AF901220548D103FDF754
:104F4000E5F941F28830FDF7C1F8FBF733FDFEE7E4
:104F5000000802584FF04070E1EE100A704700065A
:104F600010160006101601000200040006000800DA
:104F70000A000C0010002000400080000001010128
:104F800001030701000008040204080101010000F8
:104F900000000102030401020304060708090000DF
:104FA000D04F00080000002414000000080300088F
:104FB000D04F000800000020000400002403000877
:104FC000E44F000814000024DC0300002403000860
:104FD0000100000010000000000000000090D0035D
:044FE0000090D0036A
:04000005080002CD20
:00000001FF
